{
  "contractName": "MemoryScores",
  "abi": [
    {
      "anonymous": false,
      "inputs": [
        {
          "indexed": true,
          "internalType": "address",
          "name": "player",
          "type": "address"
        },
        {
          "indexed": false,
          "internalType": "uint256",
          "name": "score",
          "type": "uint256"
        }
      ],
      "name": "LeaderboardUpdated",
      "type": "event"
    },
    {
      "anonymous": false,
      "inputs": [
        {
          "indexed": true,
          "internalType": "address",
          "name": "player",
          "type": "address"
        },
        {
          "indexed": false,
          "internalType": "uint256",
          "name": "score",
          "type": "uint256"
        }
      ],
      "name": "ScoreRecorded",
      "type": "event"
    },
    {
      "inputs": [
        {
          "internalType": "uint256",
          "name": "",
          "type": "uint256"
        }
      ],
      "name": "top",
      "outputs": [
        {
          "internalType": "address",
          "name": "player",
          "type": "address"
        },
        {
          "internalType": "uint256",
          "name": "score",
          "type": "uint256"
        }
      ],
      "stateMutability": "view",
      "type": "function",
      "constant": true
    },
    {
      "inputs": [
        {
          "internalType": "uint256",
          "name": "_score",
          "type": "uint256"
        }
      ],
      "name": "recordScore",
      "outputs": [],
      "stateMutability": "nonpayable",
      "type": "function"
    },
    {
      "inputs": [],
      "name": "getMyBestScore",
      "outputs": [
        {
          "internalType": "uint256",
          "name": "",
          "type": "uint256"
        }
      ],
      "stateMutability": "view",
      "type": "function",
      "constant": true
    },
    {
      "inputs": [],
      "name": "getTopScores",
      "outputs": [
        {
          "internalType": "address[]",
          "name": "players",
          "type": "address[]"
        },
        {
          "internalType": "uint256[]",
          "name": "scores",
          "type": "uint256[]"
        }
      ],
      "stateMutability": "view",
      "type": "function",
      "constant": true
    },
    {
      "inputs": [],
      "name": "getTopCount",
      "outputs": [
        {
          "internalType": "uint256",
          "name": "",
          "type": "uint256"
        }
      ],
      "stateMutability": "pure",
      "type": "function",
      "constant": true
    }
  ],
  "bytecode": "0x608060405234801561001057600080fd5b50610714806100206000396000f3fe608060405234801561001057600080fd5b50600436106100575760003560e01c80632c6f29c41461005c578063313ae54114610080578063c6b32da4146100b2578063ee5c4e5d146100b9578063efedd7d1146100cf575b600080fd5b336000908152602081905260409020545b6040519081526020015b60405180910390f35b61009361008e3660046105a3565b6100e4565b604080516001600160a01b039093168352602083019190915201610077565b600561006d565b6100c1610110565b6040516100779291906105bc565b6100e26100dd3660046105a3565b61022e565b005b600181600581106100f457600080fd5b6002020180546001909101546001600160a01b03909116915082565b60408051600580825260c082019092526060918291816020820160a0803683370190505092508067ffffffffffffffff81111561014f5761014f610640565b604051908082528060200260200182016040528015610178578160200160208202803683370190505b50915060005b81811015610228576001816005811061019957610199610656565b600202015484516001600160a01b03909116908590839081106101be576101be610656565b60200260200101906001600160a01b031690816001600160a01b031681525050600181600581106101f1576101f1610656565b600202016001015483828151811061020b5761020b610656565b60209081029190910101528061022081610682565b91505061017e565b50509091565b336000908152602081905260409020548082111561029457336000818152602081815260409182902085905590518481527f49a4a744d867bf4e869d90a3f297ed819fbcf090c50c918f739c482556255594910160405180910390a26102943383610298565b5050565b60005b600581101561040457826001600160a01b0316600182600581106102c1576102c1610656565b60020201546001600160a01b0316036103f257600181600581106102e7576102e7610656565b600202016001015482116102fa57505050565b805b600561030982600161069b565b101561038657600161031b828261069b565b6005811061032b5761032b610656565b600202016001826005811061034257610342610656565b82546002919091029190910180546001600160a01b0319166001600160a01b039092169190911781556001918201549101558061037e81610682565b9150506102fc565b50604080518082019091526000808252602082015260016103a88160056106b4565b600581106103b8576103b8610656565b82516002919091029190910180546001600160a01b0319166001600160a01b03909216919091178155602090910151600190910155610404565b806103fc81610682565b91505061029b565b5060005b600581101561059e5760006001826005811061042657610426610656565b60020201546001600160a01b0316148061045957506001816005811061044e5761044e610656565b600202016001015482115b1561058c57600061046c600160056106b4565b90505b818111156104ee57600161048381836106b4565b6005811061049357610493610656565b60020201600182600581106104aa576104aa610656565b82546002919091029190910180546001600160a01b0319166001600160a01b03909216919091178155600191820154910155806104e6816106c7565b91505061046f565b506040518060400160405280846001600160a01b03168152602001838152506001826005811061052057610520610656565b82516002919091029190910180546001600160a01b0319166001600160a01b03928316178155602092830151600190910155604051848152908516917f24e225604268d6416871b32db1be8e49f497caf8360393b31d71a34a4ce26693910160405180910390a2505050565b8061059681610682565b915050610408565b505050565b6000602082840312156105b557600080fd5b5035919050565b604080825283519082018190526000906020906060840190828701845b828110156105fe5781516001600160a01b0316845292840192908401906001016105d9565b5050508381038285015284518082528583019183019060005b8181101561063357835183529284019291840191600101610617565b5090979650505050505050565b634e487b7160e01b600052604160045260246000fd5b634e487b7160e01b600052603260045260246000fd5b634e487b7160e01b600052601160045260246000fd5b6000600182016106945761069461066c565b5060010190565b808201808211156106ae576106ae61066c565b92915050565b818103818111156106ae576106ae61066c565b6000816106d6576106d661066c565b50600019019056fea264697066735822122088cff206b065cb24727178b7077f09c2e22c9321a4b4d64dc8294c714d88a9f864736f6c63430008130033",
  "immutableReferences": {},
  "source": "// SPDX-License-Identifier: MIT\r\npragma solidity ^0.8.19;\r\n\r\ncontract MemoryScores {\r\n    struct Entry {\r\n        address player;\r\n        uint256 score;\r\n    }\r\n\r\n    // mapping from player address -> best score\r\n    mapping(address => uint256) private bestScores;\r\n\r\n    // top N leaderboard (sorted descending by score). N = 5\r\n    Entry[5] public top; // fixed size array\r\n\r\n    event ScoreRecorded(address indexed player, uint256 score);\r\n    event LeaderboardUpdated(address indexed player, uint256 score);\r\n\r\n    // write: record a score for msg.sender\r\n    function recordScore(uint256 _score) external {\r\n        require(_score >= 0, \"Invalid score\"); // guard\r\n\r\n        // update player's best score if new score is better (higher)\r\n        uint256 prev = bestScores[msg.sender];\r\n        if (_score > prev) {\r\n            bestScores[msg.sender] = _score;\r\n            emit ScoreRecorded(msg.sender, _score);\r\n\r\n            // try to insert/update in top leaderboard\r\n            _insertLeaderboard(msg.sender, _score);\r\n        }\r\n    }\r\n\r\n    // internal: insert a new top score into the fixed-size top array (top[0] highest)\r\n    function _insertLeaderboard(address _player, uint256 _score) internal {\r\n        // If player's already in leaderboard with lower score, remove old entry\r\n        for (uint i = 0; i < top.length; i++) {\r\n            if (top[i].player == _player) {\r\n                if (_score <= top[i].score) return; // no change needed\r\n                // shift elements left from i to end to remove old\r\n                for (uint j = i; j + 1 < top.length; j++) {\r\n                    top[j] = top[j + 1];\r\n                }\r\n                top[top.length - 1] = Entry(address(0), 0);\r\n                break;\r\n            }\r\n        }\r\n\r\n        // find insertion index for new score (higher is better)\r\n        for (uint i = 0; i < top.length; i++) {\r\n            if (top[i].player == address(0) || _score > top[i].score) {\r\n                // shift lower entries down starting from the bottom\r\n                for (uint j = top.length - 1; j > i; j--) {\r\n                    top[j] = top[j - 1];\r\n                }\r\n                top[i] = Entry(_player, _score);\r\n                emit LeaderboardUpdated(_player, _score);\r\n                break;\r\n            }\r\n        }\r\n    }\r\n\r\n    // read: get caller's best score\r\n    function getMyBestScore() external view returns (uint256) {\r\n        return bestScores[msg.sender];\r\n    }\r\n\r\n    // read: return top leaderboard entries (as arrays)\r\n    function getTopScores() external view returns (address[] memory players, uint256[] memory scores) {\r\n        uint256 len = top.length;\r\n        players = new address[](len);\r\n        scores = new uint256[](len);\r\n        for (uint i = 0; i < len; i++) {\r\n            players[i] = top[i].player;\r\n            scores[i] = top[i].score;\r\n        }\r\n    }\r\n\r\n    // optional helper: get how many leaderboard slots (constant = 5)\r\n    function getTopCount() external pure returns (uint256) {\r\n        return 5;\r\n    }\r\n}\r\n",
  "sourcePath": "C:\\Users\\amnah\\OneDrive\\Desktop\\memory-game-truffle\\contracts\\MemoryScores.sol",
  "compiler": {
    "name": "solc",
    "version": "0.8.19+commit.7dd6d404.Emscripten.clang"
  },
  "schemaVersion": "3.4.16",
  "updatedAt": "2025-11-22T16:06:17.797Z",
  "networkType": "ethereum",
  "devdoc": {
    "kind": "dev",
    "methods": {},
    "version": 1
  },
  "userdoc": {
    "kind": "user",
    "methods": {},
    "version": 1
  }
}